{
  "contractName": "consumer",
  "abi": [
    {
      "inputs": [],
      "stateMutability": "nonpayable",
      "type": "constructor"
    },
    {
      "inputs": [
        {
          "internalType": "address",
          "name": "",
          "type": "address"
        }
      ],
      "name": "cons",
      "outputs": [
        {
          "internalType": "address",
          "name": "uniqueAddress_Consumer",
          "type": "address"
        },
        {
          "internalType": "string",
          "name": "cname",
          "type": "string"
        },
        {
          "internalType": "string",
          "name": "cid",
          "type": "string"
        },
        {
          "internalType": "string",
          "name": "actual_address",
          "type": "string"
        },
        {
          "internalType": "uint256",
          "name": "pinCode",
          "type": "uint256"
        },
        {
          "internalType": "string",
          "name": "state",
          "type": "string"
        },
        {
          "internalType": "string",
          "name": "country",
          "type": "string"
        },
        {
          "internalType": "uint256",
          "name": "account_balance",
          "type": "uint256"
        },
        {
          "internalType": "uint256",
          "name": "bank_accountC",
          "type": "uint256"
        }
      ],
      "stateMutability": "view",
      "type": "function",
      "constant": true
    },
    {
      "inputs": [
        {
          "internalType": "address",
          "name": "",
          "type": "address"
        }
      ],
      "name": "pbhm",
      "outputs": [
        {
          "internalType": "address",
          "name": "_seller_address",
          "type": "address"
        },
        {
          "internalType": "address",
          "name": "c_address",
          "type": "address"
        },
        {
          "internalType": "string",
          "name": "product_name",
          "type": "string"
        },
        {
          "internalType": "string",
          "name": "product_Id",
          "type": "string"
        },
        {
          "internalType": "uint256",
          "name": "product_Price",
          "type": "uint256"
        }
      ],
      "stateMutability": "view",
      "type": "function",
      "constant": true
    },
    {
      "inputs": [],
      "name": "isverifiedConsumer",
      "outputs": [
        {
          "internalType": "bool",
          "name": "",
          "type": "bool"
        }
      ],
      "stateMutability": "view",
      "type": "function",
      "constant": true
    },
    {
      "inputs": [
        {
          "internalType": "address",
          "name": "adj",
          "type": "address"
        },
        {
          "internalType": "string",
          "name": "_cname",
          "type": "string"
        },
        {
          "internalType": "string",
          "name": "_cid",
          "type": "string"
        },
        {
          "internalType": "string",
          "name": "_acad",
          "type": "string"
        },
        {
          "internalType": "uint256",
          "name": "_pc",
          "type": "uint256"
        },
        {
          "internalType": "string",
          "name": "_state",
          "type": "string"
        },
        {
          "internalType": "string",
          "name": "_country",
          "type": "string"
        },
        {
          "internalType": "uint256",
          "name": "balance",
          "type": "uint256"
        },
        {
          "internalType": "uint256",
          "name": "account_number",
          "type": "uint256"
        }
      ],
      "name": "setConsumer",
      "outputs": [],
      "stateMutability": "nonpayable",
      "type": "function"
    },
    {
      "inputs": [
        {
          "internalType": "address",
          "name": "un",
          "type": "address"
        }
      ],
      "name": "isConsumerAvailable",
      "outputs": [
        {
          "internalType": "bool",
          "name": "",
          "type": "bool"
        }
      ],
      "stateMutability": "view",
      "type": "function",
      "constant": true
    },
    {
      "inputs": [
        {
          "internalType": "address",
          "name": "unqa",
          "type": "address"
        },
        {
          "internalType": "uint256",
          "name": "money",
          "type": "uint256"
        }
      ],
      "name": "addBalancetoWallet",
      "outputs": [],
      "stateMutability": "nonpayable",
      "type": "function"
    },
    {
      "inputs": [
        {
          "internalType": "address",
          "name": "consumer_address",
          "type": "address"
        },
        {
          "internalType": "address",
          "name": "_seller_address",
          "type": "address"
        },
        {
          "internalType": "string",
          "name": "_seller_name",
          "type": "string"
        },
        {
          "internalType": "string",
          "name": "product_name",
          "type": "string"
        },
        {
          "internalType": "string",
          "name": "id",
          "type": "string"
        },
        {
          "internalType": "uint256",
          "name": "product_price",
          "type": "uint256"
        }
      ],
      "name": "BUYaPRODUCT",
      "outputs": [
        {
          "internalType": "string",
          "name": "",
          "type": "string"
        },
        {
          "internalType": "string",
          "name": "",
          "type": "string"
        },
        {
          "internalType": "string",
          "name": "",
          "type": "string"
        },
        {
          "internalType": "string",
          "name": "",
          "type": "string"
        },
        {
          "internalType": "address",
          "name": "",
          "type": "address"
        },
        {
          "internalType": "uint256",
          "name": "",
          "type": "uint256"
        },
        {
          "internalType": "bool",
          "name": "",
          "type": "bool"
        }
      ],
      "stateMutability": "nonpayable",
      "type": "function"
    },
    {
      "inputs": [
        {
          "internalType": "address",
          "name": "sell_add",
          "type": "address"
        },
        {
          "internalType": "string",
          "name": "product_name",
          "type": "string"
        },
        {
          "internalType": "string",
          "name": "product_ID",
          "type": "string"
        },
        {
          "internalType": "uint256",
          "name": "sellerR",
          "type": "uint256"
        },
        {
          "internalType": "uint256",
          "name": "productR",
          "type": "uint256"
        }
      ],
      "name": "giveRatingTOSellerandProduct",
      "outputs": [
        {
          "internalType": "address",
          "name": "",
          "type": "address"
        },
        {
          "internalType": "string",
          "name": "",
          "type": "string"
        },
        {
          "internalType": "string",
          "name": "",
          "type": "string"
        },
        {
          "internalType": "uint256",
          "name": "",
          "type": "uint256"
        },
        {
          "internalType": "uint256",
          "name": "",
          "type": "uint256"
        },
        {
          "internalType": "bool",
          "name": "",
          "type": "bool"
        }
      ],
      "stateMutability": "view",
      "type": "function",
      "constant": true
    },
    {
      "inputs": [
        {
          "internalType": "address",
          "name": "ad",
          "type": "address"
        },
        {
          "internalType": "uint256",
          "name": "password",
          "type": "uint256"
        }
      ],
      "name": "loginC",
      "outputs": [
        {
          "internalType": "uint256",
          "name": "",
          "type": "uint256"
        }
      ],
      "stateMutability": "view",
      "type": "function",
      "constant": true
    },
    {
      "inputs": [
        {
          "internalType": "address",
          "name": "c_adda",
          "type": "address"
        }
      ],
      "name": "checkBalance",
      "outputs": [
        {
          "internalType": "uint256",
          "name": "",
          "type": "uint256"
        }
      ],
      "stateMutability": "view",
      "type": "function",
      "constant": true
    }
  ],
  "bytecode": "0x6080604052608c60015534801561001557600080fd5b50336000806101000a81548173ffffffffffffffffffffffffffffffffffffffff021916908373ffffffffffffffffffffffffffffffffffffffff160217905550612077806100656000396000f3fe608060405234801561001057600080fd5b506004361061009e5760003560e01c80635f515226116100665780635f5152261461016f578063931adb461461019f578063ce8a0c17146101d5578063e3ec15141461020d578063fc760e73146102425761009e565b80633086d4e0146100a357806330adc739146100d357806344fcd4e614610107578063557d4d86146101375780635db4df4d14610153575b600080fd5b6100bd60048036038101906100b89190611614565b610260565b6040516100ca9190611663565b60405180910390f35b6100ed60048036038101906100e8919061167e565b6103ac565b6040516100fe959493929190611753565b60405180910390f35b610121600480360381019061011c919061167e565b610532565b60405161012e91906117cf565b60405180910390f35b610151600480360381019061014c919061191f565b6105e7565b005b61016d60048036038101906101689190611614565b61091f565b005b6101896004803603810190610184919061167e565b61098e565b6040516101969190611663565b60405180910390f35b6101b960048036038101906101b49190611a75565b6109ec565b6040516101cc9796959493929190611b56565b60405180910390f35b6101ef60048036038101906101ea919061167e565b610f7a565b60405161020499989796959493929190611be1565b60405180910390f35b61022760048036038101906102229190611c91565b611290565b60405161023996959493929190611d44565b60405180910390f35b61024a611467565b60405161025791906117cf565b60405180910390f35b60008060009054906101000a900473ffffffffffffffffffffffffffffffffffffffff1673ffffffffffffffffffffffffffffffffffffffff168373ffffffffffffffffffffffffffffffffffffffff16036102cd5760015482036102c857600190506103a6565b6103a1565b60005b60048054905081101561039f578373ffffffffffffffffffffffffffffffffffffffff166004828154811061030857610307611db3565b5b906000526020600020906009020160000160009054906101000a900473ffffffffffffffffffffffffffffffffffffffff1673ffffffffffffffffffffffffffffffffffffffff160361038c57826004828154811061036a57610369611db3565b5b9060005260206000209060090201600801540361038b5760029150506103a6565b5b808061039790611e11565b9150506102d0565b505b600390505b92915050565b60036020528060005260406000206000915090508060000160009054906101000a900473ffffffffffffffffffffffffffffffffffffffff16908060010160009054906101000a900473ffffffffffffffffffffffffffffffffffffffff169080600201805461041b90611e88565b80601f016020809104026020016040519081016040528092919081815260200182805461044790611e88565b80156104945780601f1061046957610100808354040283529160200191610494565b820191906000526020600020905b81548152906001019060200180831161047757829003601f168201915b5050505050908060030180546104a990611e88565b80601f01602080910402602001604051908101604052809291908181526020018280546104d590611e88565b80156105225780601f106104f757610100808354040283529160200191610522565b820191906000526020600020905b81548152906001019060200180831161050557829003601f168201915b5050505050908060040154905085565b600080600090505b6004805490508110156105dc578273ffffffffffffffffffffffffffffffffffffffff166004828154811061057257610571611db3565b5b906000526020600020906009020160000160009054906101000a900473ffffffffffffffffffffffffffffffffffffffff1673ffffffffffffffffffffffffffffffffffffffff16036105c95760019150506105e2565b80806105d490611e11565b91505061053a565b50600090505b919050565b6105ef611467565b6105f857600080fd5b61060189610532565b1561060b57600080fd5b6040518061012001604052808a73ffffffffffffffffffffffffffffffffffffffff16815260200189815260200188815260200187815260200186815260200185815260200184815260200183815260200182815250600260008b73ffffffffffffffffffffffffffffffffffffffff1673ffffffffffffffffffffffffffffffffffffffff16815260200190815260200160002060008201518160000160006101000a81548173ffffffffffffffffffffffffffffffffffffffff021916908373ffffffffffffffffffffffffffffffffffffffff16021790555060208201518160010190805190602001906107039291906114c9565b5060408201518160020190805190602001906107209291906114c9565b50606082015181600301908051906020019061073d9291906114c9565b506080820151816004015560a08201518160050190805190602001906107649291906114c9565b5060c08201518160060190805190602001906107819291906114c9565b5060e08201518160070155610100820151816008015590505060046040518061012001604052808b73ffffffffffffffffffffffffffffffffffffffff1681526020018a815260200189815260200188815260200187815260200186815260200185815260200184815260200183815250908060018154018082558091505060019003906000526020600020906009020160009091909190915060008201518160000160006101000a81548173ffffffffffffffffffffffffffffffffffffffff021916908373ffffffffffffffffffffffffffffffffffffffff160217905550602082015181600101908051906020019061087e9291906114c9565b50604082015181600201908051906020019061089b9291906114c9565b5060608201518160030190805190602001906108b89291906114c9565b506080820151816004015560a08201518160050190805190602001906108df9291906114c9565b5060c08201518160060190805190602001906108fc9291906114c9565b5060e0820151816007015561010082015181600801555050505050505050505050565b61092882610532565b61093157600080fd5b80600260008473ffffffffffffffffffffffffffffffffffffffff1673ffffffffffffffffffffffffffffffffffffffff16815260200190815260200160002060070160008282546109839190611eb9565b925050819055505050565b600061099982610532565b6109a257600080fd5b600260008373ffffffffffffffffffffffffffffffffffffffff1673ffffffffffffffffffffffffffffffffffffffff168152602001908152602001600020600701549050919050565b6060806060806000806000610a008d610532565b610a0957600080fd5b87600260008f73ffffffffffffffffffffffffffffffffffffffff1673ffffffffffffffffffffffffffffffffffffffff1681526020019081526020016000206007015410610e875787600260008f73ffffffffffffffffffffffffffffffffffffffff1673ffffffffffffffffffffffffffffffffffffffff16815260200190815260200160002060070154610aa09190611f0f565b600260008f73ffffffffffffffffffffffffffffffffffffffff1673ffffffffffffffffffffffffffffffffffffffff168152602001908152602001600020600701819055506040518060a001604052808d73ffffffffffffffffffffffffffffffffffffffff1681526020018e73ffffffffffffffffffffffffffffffffffffffff1681526020018b81526020018a815260200189815250600360008f73ffffffffffffffffffffffffffffffffffffffff1673ffffffffffffffffffffffffffffffffffffffff16815260200190815260200160002060008201518160000160006101000a81548173ffffffffffffffffffffffffffffffffffffffff021916908373ffffffffffffffffffffffffffffffffffffffff16021790555060208201518160010160006101000a81548173ffffffffffffffffffffffffffffffffffffffff021916908373ffffffffffffffffffffffffffffffffffffffff1602179055506040820151816002019080519060200190610c229291906114c9565b506060820151816003019080519060200190610c3f9291906114c9565b506080820151816004015590505060056040518060a001604052808e73ffffffffffffffffffffffffffffffffffffffff1681526020018f73ffffffffffffffffffffffffffffffffffffffff1681526020018c81526020018b81526020018a815250908060018154018082558091505060019003906000526020600020906005020160009091909190915060008201518160000160006101000a81548173ffffffffffffffffffffffffffffffffffffffff021916908373ffffffffffffffffffffffffffffffffffffffff16021790555060208201518160010160006101000a81548173ffffffffffffffffffffffffffffffffffffffff021916908373ffffffffffffffffffffffffffffffffffffffff1602179055506040820151816002019080519060200190610d759291906114c9565b506060820151816003019080519060200190610d929291906114c9565b50608082015181600401555050600260008e73ffffffffffffffffffffffffffffffffffffffff1673ffffffffffffffffffffffffffffffffffffffff1681526020019081526020016000206001018b8b8b8f8c6001868054610df490611e88565b80601f0160208091040260200160405190810160405280929190818152602001828054610e2090611e88565b8015610e6d5780601f10610e4257610100808354040283529160200191610e6d565b820191906000526020600020905b815481529060010190602001808311610e5057829003601f168201915b505050505096509650965096509650965096509650610f6b565b600260008e73ffffffffffffffffffffffffffffffffffffffff1673ffffffffffffffffffffffffffffffffffffffff1681526020019081526020016000206001018b8b8b8f8c6000868054610edc90611e88565b80601f0160208091040260200160405190810160405280929190818152602001828054610f0890611e88565b8015610f555780601f10610f2a57610100808354040283529160200191610f55565b820191906000526020600020905b815481529060010190602001808311610f3857829003601f168201915b5050505050965096509650965096509650965096505b96509650965096509650965096565b60026020528060005260406000206000915090508060000160009054906101000a900473ffffffffffffffffffffffffffffffffffffffff1690806001018054610fc390611e88565b80601f0160208091040260200160405190810160405280929190818152602001828054610fef90611e88565b801561103c5780601f106110115761010080835404028352916020019161103c565b820191906000526020600020905b81548152906001019060200180831161101f57829003601f168201915b50505050509080600201805461105190611e88565b80601f016020809104026020016040519081016040528092919081815260200182805461107d90611e88565b80156110ca5780601f1061109f576101008083540402835291602001916110ca565b820191906000526020600020905b8154815290600101906020018083116110ad57829003601f168201915b5050505050908060030180546110df90611e88565b80601f016020809104026020016040519081016040528092919081815260200182805461110b90611e88565b80156111585780601f1061112d57610100808354040283529160200191611158565b820191906000526020600020905b81548152906001019060200180831161113b57829003601f168201915b50505050509080600401549080600501805461117390611e88565b80601f016020809104026020016040519081016040528092919081815260200182805461119f90611e88565b80156111ec5780601f106111c1576101008083540402835291602001916111ec565b820191906000526020600020905b8154815290600101906020018083116111cf57829003601f168201915b50505050509080600601805461120190611e88565b80601f016020809104026020016040519081016040528092919081815260200182805461122d90611e88565b801561127a5780601f1061124f5761010080835404028352916020019161127a565b820191906000526020600020905b81548152906001019060200180831161125d57829003601f168201915b5050505050908060070154908060080154905089565b6000606080600080600080600090505b600580549050811015611445578b73ffffffffffffffffffffffffffffffffffffffff16600582815481106112d8576112d7611db3565b5b906000526020600020906005020160000160009054906101000a900473ffffffffffffffffffffffffffffffffffffffff1673ffffffffffffffffffffffffffffffffffffffff1603611432576005818154811061133957611338611db3565b5b906000526020600020906005020160020160405160200161135a9190611fe2565b604051602081830303815290604052805190602001208b604051602001611381919061202a565b604051602081830303815290604052805190602001201480156114135750600581815481106113b3576113b2611db3565b5b90600052602060002090600502016003016040516020016113d49190611fe2565b604051602081830303815290604052805190602001208a6040516020016113fb919061202a565b60405160208183030381529060405280519060200120145b15611431578b8b8b8b8b60019650965096509650965096505061145a565b5b808061143d90611e11565b9150506112a0565b508a8a8a8a8a60009550955095509550955095505b9550955095509550955095565b60008060009054906101000a900473ffffffffffffffffffffffffffffffffffffffff1673ffffffffffffffffffffffffffffffffffffffff163373ffffffffffffffffffffffffffffffffffffffff16146114c257600080fd5b6001905090565b8280546114d590611e88565b90600052602060002090601f0160209004810192826114f7576000855561153e565b82601f1061151057805160ff191683800117855561153e565b8280016001018555821561153e579182015b8281111561153d578251825591602001919060010190611522565b5b50905061154b919061154f565b5090565b5b80821115611568576000816000905550600101611550565b5090565b6000604051905090565b600080fd5b600080fd5b600073ffffffffffffffffffffffffffffffffffffffff82169050919050565b60006115ab82611580565b9050919050565b6115bb816115a0565b81146115c657600080fd5b50565b6000813590506115d8816115b2565b92915050565b6000819050919050565b6115f1816115de565b81146115fc57600080fd5b50565b60008135905061160e816115e8565b92915050565b6000806040838503121561162b5761162a611576565b5b6000611639858286016115c9565b925050602061164a858286016115ff565b9150509250929050565b61165d816115de565b82525050565b60006020820190506116786000830184611654565b92915050565b60006020828403121561169457611693611576565b5b60006116a2848285016115c9565b91505092915050565b6116b4816115a0565b82525050565b600081519050919050565b600082825260208201905092915050565b60005b838110156116f45780820151818401526020810190506116d9565b83811115611703576000848401525b50505050565b6000601f19601f8301169050919050565b6000611725826116ba565b61172f81856116c5565b935061173f8185602086016116d6565b61174881611709565b840191505092915050565b600060a08201905061176860008301886116ab565b61177560208301876116ab565b8181036040830152611787818661171a565b9050818103606083015261179b818561171a565b90506117aa6080830184611654565b9695505050505050565b60008115159050919050565b6117c9816117b4565b82525050565b60006020820190506117e460008301846117c0565b92915050565b600080fd5b600080fd5b7f4e487b7100000000000000000000000000000000000000000000000000000000600052604160045260246000fd5b61182c82611709565b810181811067ffffffffffffffff8211171561184b5761184a6117f4565b5b80604052505050565b600061185e61156c565b905061186a8282611823565b919050565b600067ffffffffffffffff82111561188a576118896117f4565b5b61189382611709565b9050602081019050919050565b82818337600083830152505050565b60006118c26118bd8461186f565b611854565b9050828152602081018484840111156118de576118dd6117ef565b5b6118e98482856118a0565b509392505050565b600082601f830112611906576119056117ea565b5b81356119168482602086016118af565b91505092915050565b60008060008060008060008060006101208a8c03121561194257611941611576565b5b60006119508c828d016115c9565b99505060208a013567ffffffffffffffff8111156119715761197061157b565b5b61197d8c828d016118f1565b98505060408a013567ffffffffffffffff81111561199e5761199d61157b565b5b6119aa8c828d016118f1565b97505060608a013567ffffffffffffffff8111156119cb576119ca61157b565b5b6119d78c828d016118f1565b96505060806119e88c828d016115ff565b95505060a08a013567ffffffffffffffff811115611a0957611a0861157b565b5b611a158c828d016118f1565b94505060c08a013567ffffffffffffffff811115611a3657611a3561157b565b5b611a428c828d016118f1565b93505060e0611a538c828d016115ff565b925050610100611a658c828d016115ff565b9150509295985092959850929598565b60008060008060008060c08789031215611a9257611a91611576565b5b6000611aa089828a016115c9565b9650506020611ab189828a016115c9565b955050604087013567ffffffffffffffff811115611ad257611ad161157b565b5b611ade89828a016118f1565b945050606087013567ffffffffffffffff811115611aff57611afe61157b565b5b611b0b89828a016118f1565b935050608087013567ffffffffffffffff811115611b2c57611b2b61157b565b5b611b3889828a016118f1565b92505060a0611b4989828a016115ff565b9150509295509295509295565b600060e0820190508181036000830152611b70818a61171a565b90508181036020830152611b84818961171a565b90508181036040830152611b98818861171a565b90508181036060830152611bac818761171a565b9050611bbb60808301866116ab565b611bc860a0830185611654565b611bd560c08301846117c0565b98975050505050505050565b600061012082019050611bf7600083018c6116ab565b8181036020830152611c09818b61171a565b90508181036040830152611c1d818a61171a565b90508181036060830152611c31818961171a565b9050611c406080830188611654565b81810360a0830152611c52818761171a565b905081810360c0830152611c66818661171a565b9050611c7560e0830185611654565b611c83610100830184611654565b9a9950505050505050505050565b600080600080600060a08688031215611cad57611cac611576565b5b6000611cbb888289016115c9565b955050602086013567ffffffffffffffff811115611cdc57611cdb61157b565b5b611ce8888289016118f1565b945050604086013567ffffffffffffffff811115611d0957611d0861157b565b5b611d15888289016118f1565b9350506060611d26888289016115ff565b9250506080611d37888289016115ff565b9150509295509295909350565b600060c082019050611d5960008301896116ab565b8181036020830152611d6b818861171a565b90508181036040830152611d7f818761171a565b9050611d8e6060830186611654565b611d9b6080830185611654565b611da860a08301846117c0565b979650505050505050565b7f4e487b7100000000000000000000000000000000000000000000000000000000600052603260045260246000fd5b7f4e487b7100000000000000000000000000000000000000000000000000000000600052601160045260246000fd5b6000611e1c826115de565b91507fffffffffffffffffffffffffffffffffffffffffffffffffffffffffffffffff8203611e4e57611e4d611de2565b5b600182019050919050565b7f4e487b7100000000000000000000000000000000000000000000000000000000600052602260045260246000fd5b60006002820490506001821680611ea057607f821691505b602082108103611eb357611eb2611e59565b5b50919050565b6000611ec4826115de565b9150611ecf836115de565b9250827fffffffffffffffffffffffffffffffffffffffffffffffffffffffffffffffff03821115611f0457611f03611de2565b5b828201905092915050565b6000611f1a826115de565b9150611f25836115de565b925082821015611f3857611f37611de2565b5b828203905092915050565b600081905092915050565b60008190508160005260206000209050919050565b60008154611f7081611e88565b611f7a8186611f43565b94506001821660008114611f955760018114611fa657611fd9565b60ff19831686528186019350611fd9565b611faf85611f4e565b60005b83811015611fd157815481890152600182019150602081019050611fb2565b838801955050505b50505092915050565b6000611fee8284611f63565b915081905092915050565b6000612004826116ba565b61200e8185611f43565b935061201e8185602086016116d6565b80840191505092915050565b60006120368284611ff9565b91508190509291505056fea264697066735822122099432f5676013385ce6a4dd0040279c67f2b3c1ac0c5dd4545037affae87dcb164736f6c634300080d0033",
  "immutableReferences": {},
  "source": "//SPDX-License-Identifier: MIT\r\npragma solidity ^0.8.10;\r\ncontract consumer{\r\n  address ADMIN1;\r\n  uint pass=140;\r\n    constructor(){\r\n       ADMIN1=msg.sender;\r\n    }\r\n    modifier onlyADMIN1(){\r\n        require(msg.sender==ADMIN1);\r\n        _;\r\n    }\r\n    function isverifiedConsumer()public view onlyADMIN1 returns(bool){\r\n        return true;\r\n    }\r\n    struct Consumer{\r\n        address uniqueAddress_Consumer;\r\n        string cname;\r\n        string cid;\r\n        string actual_address;\r\n        uint pinCode;\r\n        string state;\r\n        string country;\r\n        uint account_balance;\r\n        uint bank_accountC;\r\n    }\r\n    struct ProductsBought{\r\n        address _seller_address;\r\n        address c_address;\r\n        string product_name;\r\n        string product_Id;\r\n        uint product_Price;\r\n    }\r\n    mapping(address=>Consumer)public cons;\r\n    mapping(address=>ProductsBought)public pbhm;\r\n    Consumer[] con;\r\n   ProductsBought[] pba;\r\n    function setConsumer(address adj,string memory _cname,string memory _cid,string memory _acad,uint _pc,string memory _state,string memory _country,uint balance,uint account_number)public{\r\n     require(isverifiedConsumer());\r\n     require(!isConsumerAvailable(adj));\r\n     cons[adj]=Consumer(adj,_cname,_cid,_acad,_pc,_state,_country,balance,account_number);\r\n     con.push(Consumer(adj,_cname,_cid,_acad,_pc,_state,_country,balance,account_number));\r\n     \r\n    }\r\n    function isConsumerAvailable(address un)public view returns(bool){\r\n        for(uint i=0;i<con.length;i++){\r\n            if(con[i].uniqueAddress_Consumer==un)\r\n            return true;\r\n        }\r\n        return false;\r\n    }\r\n    function addBalancetoWallet(address unqa,uint money)public{\r\n      require(isConsumerAvailable(unqa));\r\n      cons[unqa].account_balance+=money;\r\n    }\r\n    function BUYaPRODUCT(address consumer_address,address _seller_address,string memory _seller_name,string memory product_name,string memory id,uint product_price)public \r\n     returns(string memory,string memory ,string memory,string memory,address,uint,bool){\r\nrequire(isConsumerAvailable(consumer_address));\r\nif(cons[consumer_address].account_balance>=product_price){\r\n    cons[consumer_address].account_balance= cons[consumer_address].account_balance-product_price;\r\n    pbhm[consumer_address]=ProductsBought(_seller_address,consumer_address,product_name,id,product_price);\r\n    pba.push(ProductsBought(_seller_address,consumer_address,product_name,id,product_price));\r\n        return (cons[consumer_address].cname,_seller_name,product_name,id,_seller_address,product_price,true);\r\n}\r\nreturn  (cons[consumer_address].cname,_seller_name,product_name,id,_seller_address,product_price,false);\r\n    }\r\n    function giveRatingTOSellerandProduct(address sell_add,string memory product_name,string memory product_ID,uint sellerR,uint productR)public view returns(address,string memory,string memory,uint,uint,bool){\r\n     for(uint i=0;i<pba.length;i++){\r\n         if(pba[i]._seller_address==sell_add){\r\n             if((keccak256(abi.encodePacked(product_name))==keccak256(abi.encodePacked(pba[i].product_name))) && \r\n             keccak256(abi.encodePacked(product_ID))==keccak256(abi.encodePacked(pba[i].product_Id))){\r\n return (sell_add,product_name,product_ID,sellerR,productR,true);\r\n             }\r\n         }\r\n     }\r\n     return (sell_add,product_name,product_ID,sellerR,productR,false);\r\n    }\r\n    function loginC(address ad,uint password)public view returns(uint){\r\nif(ad==ADMIN1){\r\n    if(password==pass){\r\n        return 1;\r\n    }\r\n}\r\nelse{\r\n    for(uint i=0;i<con.length;i++){\r\n        if(con[i].uniqueAddress_Consumer==ad){\r\n           if( con[i].bank_accountC==password){\r\n               return 2;\r\n           }\r\n        }\r\n    }\r\n}\r\nreturn 3;\r\n}\r\nfunction checkBalance(address c_adda)public view returns(uint){\r\nrequire(isConsumerAvailable(c_adda));\r\n        return cons[c_adda].account_balance;\r\n}\r\n    }",
  "sourcePath": "C:\\Users\\khage\\Block-Chain-Ecommerce-Market-Place\\Ecommerce\\contracts\\Consumer.sol",
  "compiler": {
    "name": "solc",
    "version": "0.8.13+commit.abaa5c0e.Emscripten.clang"
  },
  "schemaVersion": "3.4.7",
  "updatedAt": "2022-05-20T06:16:03.089Z",
  "networkType": "ethereum",
  "devdoc": {
    "kind": "dev",
    "methods": {},
    "version": 1
  },
  "userdoc": {
    "kind": "user",
    "methods": {},
    "version": 1
  }
}