{
  "contractName": "Escrow",
  "abi": [
    {
      "inputs": [
        {
          "internalType": "address",
          "name": "cons_ad",
          "type": "address"
        },
        {
          "internalType": "address",
          "name": "sell_ad",
          "type": "address"
        }
      ],
      "name": "createAnEscrowAccount",
      "outputs": [
        {
          "internalType": "bool",
          "name": "",
          "type": "bool"
        }
      ],
      "stateMutability": "nonpayable",
      "type": "function"
    },
    {
      "inputs": [
        {
          "internalType": "uint256",
          "name": "product_price",
          "type": "uint256"
        },
        {
          "internalType": "address",
          "name": "cons_add",
          "type": "address"
        },
        {
          "internalType": "address",
          "name": "sells_add",
          "type": "address"
        }
      ],
      "name": "consumerBoughtProducts",
      "outputs": [],
      "stateMutability": "nonpayable",
      "type": "function"
    },
    {
      "inputs": [
        {
          "internalType": "address",
          "name": "sells_add",
          "type": "address"
        },
        {
          "internalType": "address",
          "name": "cons_add",
          "type": "address"
        }
      ],
      "name": "escrowExists",
      "outputs": [
        {
          "internalType": "bool",
          "name": "",
          "type": "bool"
        }
      ],
      "stateMutability": "view",
      "type": "function",
      "constant": true
    },
    {
      "inputs": [
        {
          "internalType": "address",
          "name": "consumerA",
          "type": "address"
        },
        {
          "internalType": "address",
          "name": "sellerA",
          "type": "address"
        }
      ],
      "name": "Product_Issues_At_ConsumerSide",
      "outputs": [
        {
          "internalType": "uint256",
          "name": "",
          "type": "uint256"
        }
      ],
      "stateMutability": "nonpayable",
      "type": "function"
    },
    {
      "inputs": [
        {
          "internalType": "address",
          "name": "consA",
          "type": "address"
        },
        {
          "internalType": "address",
          "name": "sellsA",
          "type": "address"
        }
      ],
      "name": "Product_Delivered_SuccessFully",
      "outputs": [
        {
          "internalType": "uint256",
          "name": "",
          "type": "uint256"
        }
      ],
      "stateMutability": "nonpayable",
      "type": "function"
    },
    {
      "inputs": [
        {
          "internalType": "address",
          "name": "c",
          "type": "address"
        },
        {
          "internalType": "address",
          "name": "s",
          "type": "address"
        }
      ],
      "name": "escrowAccountBalance",
      "outputs": [
        {
          "internalType": "uint256",
          "name": "",
          "type": "uint256"
        }
      ],
      "stateMutability": "view",
      "type": "function",
      "constant": true
    }
  ],
  "bytecode": "0x608060405234801561001057600080fd5b50610c99806100206000396000f3fe608060405234801561001057600080fd5b50600436106100625760003560e01c80631a69169514610067578063439dd3bb14610097578063563b469b146100c75780636c842683146100f7578063c552f13214610113578063c977d5cb14610143575b600080fd5b610081600480360381019061007c9190610a3e565b610173565b60405161008e9190610a97565b60405180910390f35b6100b160048036038101906100ac9190610a3e565b6102d5565b6040516100be9190610acd565b60405180910390f35b6100e160048036038101906100dc9190610a3e565b610407565b6040516100ee9190610acd565b60405180910390f35b610111600480360381019061010c9190610b14565b61053a565b005b61012d60048036038101906101289190610a3e565b6106a5565b60405161013a9190610a97565b60405180910390f35b61015d60048036038101906101589190610a3e565b610840565b60405161016a9190610a97565b60405180910390f35b6000806000905060005b6000805490508110156102ca578373ffffffffffffffffffffffffffffffffffffffff16600082815481106101b5576101b4610b67565b5b906000526020600020906003020160010160009054906101000a900473ffffffffffffffffffffffffffffffffffffffff1673ffffffffffffffffffffffffffffffffffffffff1614801561027a57508473ffffffffffffffffffffffffffffffffffffffff16600082815481106102305761022f610b67565b5b906000526020600020906003020160000160009054906101000a900473ffffffffffffffffffffffffffffffffffffffff1673ffffffffffffffffffffffffffffffffffffffff16145b156102b7576000818154811061029357610292610b67565b5b906000526020600020906003020160020154826102b09190610bc5565b91506102ca565b80806102c290610c1b565b91505061017d565b508091505092915050565b60006102e18284610407565b156102ef5760019050610401565b600060405180606001604052808573ffffffffffffffffffffffffffffffffffffffff1681526020018473ffffffffffffffffffffffffffffffffffffffff1681526020016000815250908060018154018082558091505060019003906000526020600020906003020160009091909190915060008201518160000160006101000a81548173ffffffffffffffffffffffffffffffffffffffff021916908373ffffffffffffffffffffffffffffffffffffffff16021790555060208201518160010160006101000a81548173ffffffffffffffffffffffffffffffffffffffff021916908373ffffffffffffffffffffffffffffffffffffffff160217905550604082015181600201555050600190505b92915050565b600080600090505b60008054905081101561052e578373ffffffffffffffffffffffffffffffffffffffff166000828154811061044757610446610b67565b5b906000526020600020906003020160010160009054906101000a900473ffffffffffffffffffffffffffffffffffffffff1673ffffffffffffffffffffffffffffffffffffffff1614801561050c57508273ffffffffffffffffffffffffffffffffffffffff16600082815481106104c2576104c1610b67565b5b906000526020600020906003020160000160009054906101000a900473ffffffffffffffffffffffffffffffffffffffff1673ffffffffffffffffffffffffffffffffffffffff16145b1561051b576001915050610534565b808061052690610c1b565b91505061040f565b50600090505b92915050565b61054482826102d5565b156106a05760005b60008054905081101561069e578273ffffffffffffffffffffffffffffffffffffffff166000828154811061058457610583610b67565b5b906000526020600020906003020160000160009054906101000a900473ffffffffffffffffffffffffffffffffffffffff1673ffffffffffffffffffffffffffffffffffffffff1614801561064957508173ffffffffffffffffffffffffffffffffffffffff16600082815481106105ff576105fe610b67565b5b906000526020600020906003020160010160009054906101000a900473ffffffffffffffffffffffffffffffffffffffff1673ffffffffffffffffffffffffffffffffffffffff16145b1561068b57836000828154811061066357610662610b67565b5b906000526020600020906003020160020160008282546106839190610bc5565b925050819055505b808061069690610c1b565b91505061054c565b505b505050565b60006106b18284610407565b6106ba57600080fd5b6000805b600080549050811015610835578373ffffffffffffffffffffffffffffffffffffffff16600082815481106106f6576106f5610b67565b5b906000526020600020906003020160010160009054906101000a900473ffffffffffffffffffffffffffffffffffffffff1673ffffffffffffffffffffffffffffffffffffffff161480156107bb57508473ffffffffffffffffffffffffffffffffffffffff166000828154811061077157610770610b67565b5b906000526020600020906003020160000160009054906101000a900473ffffffffffffffffffffffffffffffffffffffff1673ffffffffffffffffffffffffffffffffffffffff16145b1561082257600081815481106107d4576107d3610b67565b5b906000526020600020906003020160020154826107f19190610bc5565b9150600080828154811061080857610807610b67565b5b906000526020600020906003020160020181905550610835565b808061082d90610c1b565b9150506106be565b508091505092915050565b600061084c8284610407565b61085557600080fd5b6000805b6000805490508110156109d0578373ffffffffffffffffffffffffffffffffffffffff166000828154811061089157610890610b67565b5b906000526020600020906003020160010160009054906101000a900473ffffffffffffffffffffffffffffffffffffffff1673ffffffffffffffffffffffffffffffffffffffff1614801561095657508473ffffffffffffffffffffffffffffffffffffffff166000828154811061090c5761090b610b67565b5b906000526020600020906003020160000160009054906101000a900473ffffffffffffffffffffffffffffffffffffffff1673ffffffffffffffffffffffffffffffffffffffff16145b156109bd576000818154811061096f5761096e610b67565b5b9060005260206000209060030201600201548261098c9190610bc5565b915060008082815481106109a3576109a2610b67565b5b9060005260206000209060030201600201819055506109d0565b80806109c890610c1b565b915050610859565b508091505092915050565b600080fd5b600073ffffffffffffffffffffffffffffffffffffffff82169050919050565b6000610a0b826109e0565b9050919050565b610a1b81610a00565b8114610a2657600080fd5b50565b600081359050610a3881610a12565b92915050565b60008060408385031215610a5557610a546109db565b5b6000610a6385828601610a29565b9250506020610a7485828601610a29565b9150509250929050565b6000819050919050565b610a9181610a7e565b82525050565b6000602082019050610aac6000830184610a88565b92915050565b60008115159050919050565b610ac781610ab2565b82525050565b6000602082019050610ae26000830184610abe565b92915050565b610af181610a7e565b8114610afc57600080fd5b50565b600081359050610b0e81610ae8565b92915050565b600080600060608486031215610b2d57610b2c6109db565b5b6000610b3b86828701610aff565b9350506020610b4c86828701610a29565b9250506040610b5d86828701610a29565b9150509250925092565b7f4e487b7100000000000000000000000000000000000000000000000000000000600052603260045260246000fd5b7f4e487b7100000000000000000000000000000000000000000000000000000000600052601160045260246000fd5b6000610bd082610a7e565b9150610bdb83610a7e565b9250827fffffffffffffffffffffffffffffffffffffffffffffffffffffffffffffffff03821115610c1057610c0f610b96565b5b828201905092915050565b6000610c2682610a7e565b91507fffffffffffffffffffffffffffffffffffffffffffffffffffffffffffffffff8203610c5857610c57610b96565b5b60018201905091905056fea264697066735822122017883502c17c46e182d66ecefb0fc1cf9782724b25267916878454c6cf5b5dae64736f6c634300080d0033",
  "immutableReferences": {},
  "source": "//SPDX-License-Identifier: MIT\r\npragma solidity ^0.8.10;\r\ncontract Escrow{\r\n    struct escrowAccount{\r\n        address consumerAdd;\r\n        address selleradd;\r\n        uint wallet;\r\n    }\r\n  struct Consumer{\r\n        address uniqueAddress_Consumer;\r\n        string cname;\r\n        string cid;\r\n        string actual_address;\r\n        uint pinCode;\r\n        string state;\r\n        string country;\r\n        uint account_balance;\r\n        uint bank_accountC;\r\n    }\r\n    struct Seller{\r\n         address uniqueAddress;\r\n        string Name;\r\n        string ID;\r\n        uint Bank_Account;\r\n    }\r\n\r\n    escrowAccount[] escrow;\r\n    function createAnEscrowAccount(address cons_ad,address sell_ad)public  returns(bool){\r\n        if(escrowExists(sell_ad,cons_ad))\r\n        return true;\r\n    escrow.push(escrowAccount(cons_ad,sell_ad,0));\r\n    return true;\r\n    }\r\n    function consumerBoughtProducts(uint product_price,address cons_add,address sells_add)public{\r\n           if(createAnEscrowAccount(cons_add,sells_add)){\r\n              for(uint i=0;i<escrow.length;i++){\r\n                  if(escrow[i].consumerAdd==cons_add && escrow[i].selleradd==sells_add){\r\n                      escrow[i].wallet+=product_price;\r\n                  }\r\n              }\r\n           }\r\n    }\r\n    function escrowExists(address sells_add,address cons_add)public view returns(bool){\r\n        for(uint i=0;i<escrow.length;i++){\r\n            if(escrow[i].selleradd==sells_add && escrow[i].consumerAdd==cons_add){\r\n                return true;\r\n            }\r\n        }\r\n        return false;\r\n    }\r\n    function Product_Issues_At_ConsumerSide(address consumerA,address sellerA)public returns(uint){\r\n            require(escrowExists(sellerA,consumerA));\r\n            uint credit_Amount=0;\r\n            for(uint i=0;i<escrow.length;i++){\r\n                if(escrow[i].selleradd==sellerA && escrow[i].consumerAdd==consumerA){\r\n                    credit_Amount+=escrow[i].wallet;\r\n                    escrow[i].wallet=0;\r\n                    break;\r\n                }\r\n            }\r\n            return credit_Amount;\r\n    }\r\nfunction Product_Delivered_SuccessFully(address consA,address sellsA)public returns (uint){\r\n        require(escrowExists(sellsA,consA));\r\n            uint credit_Amount=0;\r\n            for(uint i=0;i<escrow.length;i++){\r\n                if(escrow[i].selleradd==sellsA && escrow[i].consumerAdd==consA){\r\n                    credit_Amount+=escrow[i].wallet;\r\n                    escrow[i].wallet=0;\r\n                    break;\r\n                }\r\n            }\r\nreturn credit_Amount;\r\n}\r\nfunction escrowAccountBalance(address c,address s)public view returns(uint){\r\n     \r\n       uint credit=0;\r\n     for(uint i=0;i<escrow.length;i++){\r\n                if(escrow[i].selleradd==s && escrow[i].consumerAdd==c){\r\n                    credit+=escrow[i].wallet;\r\n                    break;\r\n                }\r\n            }\r\n            return credit;\r\n}\r\n}",
  "sourcePath": "C:\\Users\\khage\\Block-Chain-Ecommerce-Market-Place\\Ecommerce\\contracts\\Escrow.sol",
  "compiler": {
    "name": "solc",
    "version": "0.8.13+commit.abaa5c0e.Emscripten.clang"
  },
  "schemaVersion": "3.4.7",
  "updatedAt": "2022-05-20T06:16:04.038Z",
  "networkType": "ethereum",
  "devdoc": {
    "kind": "dev",
    "methods": {},
    "version": 1
  },
  "userdoc": {
    "kind": "user",
    "methods": {},
    "version": 1
  }
}