{
  "contractName": "Seller",
  "abi": [
    {
      "inputs": [],
      "stateMutability": "nonpayable",
      "type": "constructor"
    },
    {
      "inputs": [
        {
          "internalType": "address",
          "name": "",
          "type": "address"
        }
      ],
      "name": "prod",
      "outputs": [
        {
          "internalType": "string",
          "name": "product_name",
          "type": "string"
        },
        {
          "internalType": "address",
          "name": "seller_address",
          "type": "address"
        },
        {
          "internalType": "string",
          "name": "product_ID",
          "type": "string"
        },
        {
          "internalType": "uint256",
          "name": "product_price",
          "type": "uint256"
        }
      ],
      "stateMutability": "view",
      "type": "function",
      "constant": true
    },
    {
      "inputs": [
        {
          "internalType": "address",
          "name": "",
          "type": "address"
        }
      ],
      "name": "sell",
      "outputs": [
        {
          "internalType": "address",
          "name": "uniqueAddress",
          "type": "address"
        },
        {
          "internalType": "string",
          "name": "Name",
          "type": "string"
        },
        {
          "internalType": "string",
          "name": "ID",
          "type": "string"
        },
        {
          "internalType": "uint256",
          "name": "Bank_Account",
          "type": "uint256"
        },
        {
          "internalType": "uint256",
          "name": "sel_wal",
          "type": "uint256"
        }
      ],
      "stateMutability": "view",
      "type": "function",
      "constant": true
    },
    {
      "inputs": [],
      "name": "isverified",
      "outputs": [
        {
          "internalType": "bool",
          "name": "",
          "type": "bool"
        }
      ],
      "stateMutability": "view",
      "type": "function",
      "constant": true
    },
    {
      "inputs": [
        {
          "internalType": "address",
          "name": "_unq",
          "type": "address"
        },
        {
          "internalType": "string",
          "name": "_name",
          "type": "string"
        },
        {
          "internalType": "string",
          "name": "_id",
          "type": "string"
        },
        {
          "internalType": "uint256",
          "name": "account",
          "type": "uint256"
        },
        {
          "internalType": "uint256",
          "name": "am",
          "type": "uint256"
        }
      ],
      "name": "setSeller",
      "outputs": [],
      "stateMutability": "nonpayable",
      "type": "function"
    },
    {
      "inputs": [
        {
          "internalType": "address",
          "name": "_seller_unq",
          "type": "address"
        }
      ],
      "name": "isSellerAvailable",
      "outputs": [
        {
          "internalType": "bool",
          "name": "",
          "type": "bool"
        }
      ],
      "stateMutability": "view",
      "type": "function",
      "constant": true
    },
    {
      "inputs": [
        {
          "internalType": "string",
          "name": "_p_name",
          "type": "string"
        },
        {
          "internalType": "address",
          "name": "_seller_unq",
          "type": "address"
        },
        {
          "internalType": "string",
          "name": "product_id",
          "type": "string"
        },
        {
          "internalType": "uint256",
          "name": "_pro_price",
          "type": "uint256"
        }
      ],
      "name": "setProduct",
      "outputs": [],
      "stateMutability": "nonpayable",
      "type": "function"
    },
    {
      "inputs": [],
      "name": "getSellers",
      "outputs": [
        {
          "internalType": "address[]",
          "name": "",
          "type": "address[]"
        },
        {
          "internalType": "string[]",
          "name": "",
          "type": "string[]"
        },
        {
          "internalType": "string[]",
          "name": "",
          "type": "string[]"
        },
        {
          "internalType": "uint256[]",
          "name": "",
          "type": "uint256[]"
        }
      ],
      "stateMutability": "view",
      "type": "function",
      "constant": true
    },
    {
      "inputs": [
        {
          "internalType": "address",
          "name": "unq",
          "type": "address"
        }
      ],
      "name": "getProductsthroughSeller",
      "outputs": [
        {
          "internalType": "string[]",
          "name": "",
          "type": "string[]"
        },
        {
          "internalType": "address[]",
          "name": "",
          "type": "address[]"
        },
        {
          "internalType": "string[]",
          "name": "",
          "type": "string[]"
        },
        {
          "internalType": "uint256[]",
          "name": "",
          "type": "uint256[]"
        }
      ],
      "stateMutability": "view",
      "type": "function",
      "constant": true
    },
    {
      "inputs": [
        {
          "internalType": "string",
          "name": "p_name",
          "type": "string"
        },
        {
          "internalType": "uint256",
          "name": "p_price",
          "type": "uint256"
        }
      ],
      "name": "getSellerthroughtProducts",
      "outputs": [
        {
          "internalType": "address[]",
          "name": "",
          "type": "address[]"
        },
        {
          "internalType": "string[]",
          "name": "",
          "type": "string[]"
        },
        {
          "internalType": "string[]",
          "name": "",
          "type": "string[]"
        },
        {
          "internalType": "uint256[]",
          "name": "",
          "type": "uint256[]"
        },
        {
          "internalType": "uint256[]",
          "name": "",
          "type": "uint256[]"
        }
      ],
      "stateMutability": "view",
      "type": "function",
      "constant": true
    },
    {
      "inputs": [],
      "name": "getProducts",
      "outputs": [
        {
          "internalType": "string[]",
          "name": "",
          "type": "string[]"
        },
        {
          "internalType": "address[]",
          "name": "",
          "type": "address[]"
        },
        {
          "internalType": "string[]",
          "name": "",
          "type": "string[]"
        },
        {
          "internalType": "uint256[]",
          "name": "",
          "type": "uint256[]"
        }
      ],
      "stateMutability": "view",
      "type": "function",
      "constant": true
    },
    {
      "inputs": [
        {
          "internalType": "address",
          "name": "ad",
          "type": "address"
        },
        {
          "internalType": "uint256",
          "name": "password",
          "type": "uint256"
        }
      ],
      "name": "login",
      "outputs": [
        {
          "internalType": "uint256",
          "name": "",
          "type": "uint256"
        }
      ],
      "stateMutability": "view",
      "type": "function",
      "constant": true
    },
    {
      "inputs": [
        {
          "internalType": "address",
          "name": "se",
          "type": "address"
        },
        {
          "internalType": "uint256",
          "name": "cred",
          "type": "uint256"
        }
      ],
      "name": "delivered",
      "outputs": [],
      "stateMutability": "nonpayable",
      "type": "function"
    },
    {
      "inputs": [
        {
          "internalType": "address",
          "name": "s",
          "type": "address"
        }
      ],
      "name": "viewBal",
      "outputs": [
        {
          "internalType": "uint256",
          "name": "",
          "type": "uint256"
        }
      ],
      "stateMutability": "view",
      "type": "function",
      "constant": true
    }
  ],
  "bytecode": "0x6080604052608c60015534801561001557600080fd5b50336000806101000a81548173ffffffffffffffffffffffffffffffffffffffff021916908373ffffffffffffffffffffffffffffffffffffffff160217905550612cbf806100656000396000f3fe608060405234801561001057600080fd5b50600436106100cf5760003560e01c80637ee454cb1161008c57806398f5b0041161006657806398f5b0041461022e578063ac8243c914610261578063c113aa0514610295578063c29b2f20146102c5576100cf565b80637ee454cb146101bb57806394b6f9d4146101dc5780639674fef514610210576100cf565b8063051dd4eb146100d4578063134ead811461010457806330e28014146101205780633d6a8e821461013c578063726238191461016f5780637b0877931461019f575b600080fd5b6100ee60048036038101906100e9919061212d565b6102e6565b6040516100fb9190612175565b60405180910390f35b61011e6004803603810190610119919061230c565b61039b565b005b61013a600480360381019061013591906123bf565b6105d9565b005b6101566004803603810190610151919061212d565b6107e4565b6040516101669493929190612724565b60405180910390f35b61018960048036038101906101849190612785565b610c60565b60405161019691906127d4565b60405180910390f35b6101b960048036038101906101b49190612785565b610dac565b005b6101c3610e1b565b6040516101d394939291906127ef565b60405180910390f35b6101f660048036038101906101f1919061212d565b61121d565b6040516102079594939291906128a9565b60405180910390f35b610218611383565b6040516102259190612175565b60405180910390f35b6102486004803603810190610243919061212d565b6113e5565b604051610258949392919061290a565b60405180910390f35b61027b6004803603810190610276919061295d565b611545565b60405161028c9594939291906129b9565b60405180910390f35b6102af60048036038101906102aa919061212d565b611bb8565b6040516102bc91906127d4565b60405180910390f35b6102cd611c16565b6040516102dd9493929190612724565b60405180910390f35b600080600090505b600480549050811015610390578273ffffffffffffffffffffffffffffffffffffffff166004828154811061032657610325612a2f565b5b906000526020600020906005020160000160009054906101000a900473ffffffffffffffffffffffffffffffffffffffff1673ffffffffffffffffffffffffffffffffffffffff160361037d576001915050610396565b808061038890612a8d565b9150506102ee565b50600090505b919050565b6103a3611383565b6103ac57600080fd5b6103b5856102e6565b156103bf57600080fd5b6040518060a001604052808673ffffffffffffffffffffffffffffffffffffffff16815260200185815260200184815260200183815260200182815250600260008773ffffffffffffffffffffffffffffffffffffffff1673ffffffffffffffffffffffffffffffffffffffff16815260200190815260200160002060008201518160000160006101000a81548173ffffffffffffffffffffffffffffffffffffffff021916908373ffffffffffffffffffffffffffffffffffffffff160217905550602082015181600101908051906020019061049e929190612018565b5060408201518160020190805190602001906104bb929190612018565b50606082015181600301556080820151816004015590505060046040518060a001604052808773ffffffffffffffffffffffffffffffffffffffff16815260200186815260200185815260200184815260200183815250908060018154018082558091505060019003906000526020600020906005020160009091909190915060008201518160000160006101000a81548173ffffffffffffffffffffffffffffffffffffffff021916908373ffffffffffffffffffffffffffffffffffffffff160217905550602082015181600101908051906020019061059e929190612018565b5060408201518160020190805190602001906105bb929190612018565b50606082015181600301556080820151816004015550505050505050565b6105e2836102e6565b6105eb57600080fd5b60405180608001604052808581526020018473ffffffffffffffffffffffffffffffffffffffff16815260200183815260200182815250600360008573ffffffffffffffffffffffffffffffffffffffff1673ffffffffffffffffffffffffffffffffffffffff168152602001908152602001600020600082015181600001908051906020019061067d929190612018565b5060208201518160010160006101000a81548173ffffffffffffffffffffffffffffffffffffffff021916908373ffffffffffffffffffffffffffffffffffffffff16021790555060408201518160020190805190602001906106e1929190612018565b5060608201518160030155905050600560405180608001604052808681526020018573ffffffffffffffffffffffffffffffffffffffff168152602001848152602001838152509080600181540180825580915050600190039060005260206000209060040201600090919091909150600082015181600001908051906020019061076d929190612018565b5060208201518160010160006101000a81548173ffffffffffffffffffffffffffffffffffffffff021916908373ffffffffffffffffffffffffffffffffffffffff16021790555060408201518160020190805190602001906107d1929190612018565b5060608201518160030155505050505050565b606080606080600060058054905067ffffffffffffffff81111561080b5761080a6121ab565b5b60405190808252806020026020018201604052801561083e57816020015b60608152602001906001900390816108295790505b509050600060058054905067ffffffffffffffff811115610862576108616121ab565b5b6040519080825280602002602001820160405280156108905781602001602082028036833780820191505090505b509050600060058054905067ffffffffffffffff8111156108b4576108b36121ab565b5b6040519080825280602002602001820160405280156108e757816020015b60608152602001906001900390816108d25790505b509050600060058054905067ffffffffffffffff81111561090b5761090a6121ab565b5b6040519080825280602002602001820160405280156109395781602001602082028036833780820191505090505b50905060005b600580549050811015610c4857600581815481106109605761095f612a2f565b5b906000526020600020906004020160010160009054906101000a900473ffffffffffffffffffffffffffffffffffffffff1673ffffffffffffffffffffffffffffffffffffffff168a73ffffffffffffffffffffffffffffffffffffffff1603610c3557600581815481106109d8576109d7612a2f565b5b906000526020600020906004020160000180546109f490612b04565b80601f0160208091040260200160405190810160405280929190818152602001828054610a2090612b04565b8015610a6d5780601f10610a4257610100808354040283529160200191610a6d565b820191906000526020600020905b815481529060010190602001808311610a5057829003601f168201915b5050505050858281518110610a8557610a84612a2f565b5b602002602001018190525060058181548110610aa457610aa3612a2f565b5b906000526020600020906004020160010160009054906101000a900473ffffffffffffffffffffffffffffffffffffffff16848281518110610ae957610ae8612a2f565b5b602002602001019073ffffffffffffffffffffffffffffffffffffffff16908173ffffffffffffffffffffffffffffffffffffffff168152505060058181548110610b3757610b36612a2f565b5b90600052602060002090600402016002018054610b5390612b04565b80601f0160208091040260200160405190810160405280929190818152602001828054610b7f90612b04565b8015610bcc5780601f10610ba157610100808354040283529160200191610bcc565b820191906000526020600020905b815481529060010190602001808311610baf57829003601f168201915b5050505050838281518110610be457610be3612a2f565b5b602002602001018190525060058181548110610c0357610c02612a2f565b5b906000526020600020906004020160030154828281518110610c2857610c27612a2f565b5b6020026020010181815250505b8080610c4090612a8d565b91505061093f565b50838383839750975097509750505050509193509193565b60008060009054906101000a900473ffffffffffffffffffffffffffffffffffffffff1673ffffffffffffffffffffffffffffffffffffffff168373ffffffffffffffffffffffffffffffffffffffff1603610ccd576001548203610cc85760019050610da6565b610da1565b60005b600480549050811015610d9f578373ffffffffffffffffffffffffffffffffffffffff1660048281548110610d0857610d07612a2f565b5b906000526020600020906005020160000160009054906101000a900473ffffffffffffffffffffffffffffffffffffffff1673ffffffffffffffffffffffffffffffffffffffff1603610d8c578260048281548110610d6a57610d69612a2f565b5b90600052602060002090600502016003015403610d8b576002915050610da6565b5b8080610d9790612a8d565b915050610cd0565b505b600390505b92915050565b610db5826102e6565b610dbe57600080fd5b80600260008473ffffffffffffffffffffffffffffffffffffffff1673ffffffffffffffffffffffffffffffffffffffff1681526020019081526020016000206004016000828254610e109190612b35565b925050819055505050565b606080606080600060048054905067ffffffffffffffff811115610e4257610e416121ab565b5b604051908082528060200260200182016040528015610e705781602001602082028036833780820191505090505b509050600060048054905067ffffffffffffffff811115610e9457610e936121ab565b5b604051908082528060200260200182016040528015610ec757816020015b6060815260200190600190039081610eb25790505b509050600060048054905067ffffffffffffffff811115610eeb57610eea6121ab565b5b604051908082528060200260200182016040528015610f1e57816020015b6060815260200190600190039081610f095790505b509050600060048054905067ffffffffffffffff811115610f4257610f416121ab565b5b604051908082528060200260200182016040528015610f705781602001602082028036833780820191505090505b50905060005b6004805490508110156112065760048181548110610f9757610f96612a2f565b5b906000526020600020906005020160000160009054906101000a900473ffffffffffffffffffffffffffffffffffffffff16858281518110610fdc57610fdb612a2f565b5b602002602001019073ffffffffffffffffffffffffffffffffffffffff16908173ffffffffffffffffffffffffffffffffffffffff16815250506004818154811061102a57611029612a2f565b5b9060005260206000209060050201600101805461104690612b04565b80601f016020809104026020016040519081016040528092919081815260200182805461107290612b04565b80156110bf5780601f10611094576101008083540402835291602001916110bf565b820191906000526020600020905b8154815290600101906020018083116110a257829003601f168201915b50505050508482815181106110d7576110d6612a2f565b5b6020026020010181905250600481815481106110f6576110f5612a2f565b5b9060005260206000209060050201600201805461111290612b04565b80601f016020809104026020016040519081016040528092919081815260200182805461113e90612b04565b801561118b5780601f106111605761010080835404028352916020019161118b565b820191906000526020600020905b81548152906001019060200180831161116e57829003601f168201915b50505050508382815181106111a3576111a2612a2f565b5b6020026020010181905250600481815481106111c2576111c1612a2f565b5b9060005260206000209060050201600301548282815181106111e7576111e6612a2f565b5b60200260200101818152505080806111fe90612a8d565b915050610f76565b508383838397509750975097505050505090919293565b60026020528060005260406000206000915090508060000160009054906101000a900473ffffffffffffffffffffffffffffffffffffffff169080600101805461126690612b04565b80601f016020809104026020016040519081016040528092919081815260200182805461129290612b04565b80156112df5780601f106112b4576101008083540402835291602001916112df565b820191906000526020600020905b8154815290600101906020018083116112c257829003601f168201915b5050505050908060020180546112f490612b04565b80601f016020809104026020016040519081016040528092919081815260200182805461132090612b04565b801561136d5780601f106113425761010080835404028352916020019161136d565b820191906000526020600020905b81548152906001019060200180831161135057829003601f168201915b5050505050908060030154908060040154905085565b60008060009054906101000a900473ffffffffffffffffffffffffffffffffffffffff1673ffffffffffffffffffffffffffffffffffffffff163373ffffffffffffffffffffffffffffffffffffffff16146113de57600080fd5b6001905090565b600360205280600052604060002060009150905080600001805461140890612b04565b80601f016020809104026020016040519081016040528092919081815260200182805461143490612b04565b80156114815780601f1061145657610100808354040283529160200191611481565b820191906000526020600020905b81548152906001019060200180831161146457829003601f168201915b5050505050908060010160009054906101000a900473ffffffffffffffffffffffffffffffffffffffff16908060020180546114bc90612b04565b80601f01602080910402602001604051908101604052809291908181526020018280546114e890612b04565b80156115355780601f1061150a57610100808354040283529160200191611535565b820191906000526020600020905b81548152906001019060200180831161151857829003601f168201915b5050505050908060030154905084565b6060806060806060600060058054905067ffffffffffffffff81111561156e5761156d6121ab565b5b60405190808252806020026020018201604052801561159c5781602001602082028036833780820191505090505b509050600060058054905067ffffffffffffffff8111156115c0576115bf6121ab565b5b6040519080825280602002602001820160405280156115f357816020015b60608152602001906001900390816115de5790505b509050600060058054905067ffffffffffffffff811115611617576116166121ab565b5b60405190808252806020026020018201604052801561164a57816020015b60608152602001906001900390816116355790505b509050600060058054905067ffffffffffffffff81111561166e5761166d6121ab565b5b60405190808252806020026020018201604052801561169c5781602001602082028036833780820191505090505b509050600060058054905067ffffffffffffffff8111156116c0576116bf6121ab565b5b6040519080825280602002602001820160405280156116ee5781602001602082028036833780820191505090505b50905060005b600580549050811015611b99576005818154811061171557611714612a2f565b5b9060005260206000209060040201600301548c101580156117a557506005818154811061174557611744612a2f565b5b90600052602060002090600402016000016040516020016117669190612c2a565b604051602081830303815290604052805190602001208d60405160200161178d9190612c72565b60405160208183030381529060405280519060200120145b15611b8657600581815481106117be576117bd612a2f565b5b906000526020600020906004020160010160009054906101000a900473ffffffffffffffffffffffffffffffffffffffff1686828151811061180357611802612a2f565b5b602002602001019073ffffffffffffffffffffffffffffffffffffffff16908173ffffffffffffffffffffffffffffffffffffffff1681525050600260006005838154811061185557611854612a2f565b5b906000526020600020906004020160010160009054906101000a900473ffffffffffffffffffffffffffffffffffffffff1673ffffffffffffffffffffffffffffffffffffffff1673ffffffffffffffffffffffffffffffffffffffff16815260200190815260200160002060010180546118cf90612b04565b80601f01602080910402602001604051908101604052809291908181526020018280546118fb90612b04565b80156119485780601f1061191d57610100808354040283529160200191611948565b820191906000526020600020905b81548152906001019060200180831161192b57829003601f168201915b50505050508582815181106119605761195f612a2f565b5b6020026020010181905250600260006005838154811061198357611982612a2f565b5b906000526020600020906004020160010160009054906101000a900473ffffffffffffffffffffffffffffffffffffffff1673ffffffffffffffffffffffffffffffffffffffff1673ffffffffffffffffffffffffffffffffffffffff16815260200190815260200160002060020180546119fd90612b04565b80601f0160208091040260200160405190810160405280929190818152602001828054611a2990612b04565b8015611a765780601f10611a4b57610100808354040283529160200191611a76565b820191906000526020600020905b815481529060010190602001808311611a5957829003601f168201915b5050505050848281518110611a8e57611a8d612a2f565b5b60200260200101819052506002600060058381548110611ab157611ab0612a2f565b5b906000526020600020906004020160010160009054906101000a900473ffffffffffffffffffffffffffffffffffffffff1673ffffffffffffffffffffffffffffffffffffffff1673ffffffffffffffffffffffffffffffffffffffff16815260200190815260200160002060030154838281518110611b3457611b33612a2f565b5b60200260200101818152505060058181548110611b5457611b53612a2f565b5b906000526020600020906004020160030154828281518110611b7957611b78612a2f565b5b6020026020010181815250505b8080611b9190612a8d565b9150506116f4565b5084848484849950995099509950995050505050509295509295909350565b6000611bc3826102e6565b611bcc57600080fd5b600260008373ffffffffffffffffffffffffffffffffffffffff1673ffffffffffffffffffffffffffffffffffffffff168152602001908152602001600020600401549050919050565b606080606080600060058054905067ffffffffffffffff811115611c3d57611c3c6121ab565b5b604051908082528060200260200182016040528015611c7057816020015b6060815260200190600190039081611c5b5790505b509050600060058054905067ffffffffffffffff811115611c9457611c936121ab565b5b604051908082528060200260200182016040528015611cc25781602001602082028036833780820191505090505b509050600060058054905067ffffffffffffffff811115611ce657611ce56121ab565b5b604051908082528060200260200182016040528015611d1957816020015b6060815260200190600190039081611d045790505b509050600060058054905067ffffffffffffffff811115611d3d57611d3c6121ab565b5b604051908082528060200260200182016040528015611d6b5781602001602082028036833780820191505090505b50905060005b6005805490508110156120015760058181548110611d9257611d91612a2f565b5b90600052602060002090600402016000018054611dae90612b04565b80601f0160208091040260200160405190810160405280929190818152602001828054611dda90612b04565b8015611e275780601f10611dfc57610100808354040283529160200191611e27565b820191906000526020600020905b815481529060010190602001808311611e0a57829003601f168201915b5050505050858281518110611e3f57611e3e612a2f565b5b602002602001018190525060058181548110611e5e57611e5d612a2f565b5b906000526020600020906004020160010160009054906101000a900473ffffffffffffffffffffffffffffffffffffffff16848281518110611ea357611ea2612a2f565b5b602002602001019073ffffffffffffffffffffffffffffffffffffffff16908173ffffffffffffffffffffffffffffffffffffffff168152505060058181548110611ef157611ef0612a2f565b5b90600052602060002090600402016002018054611f0d90612b04565b80601f0160208091040260200160405190810160405280929190818152602001828054611f3990612b04565b8015611f865780601f10611f5b57610100808354040283529160200191611f86565b820191906000526020600020905b815481529060010190602001808311611f6957829003601f168201915b5050505050838281518110611f9e57611f9d612a2f565b5b602002602001018190525060058181548110611fbd57611fbc612a2f565b5b906000526020600020906004020160030154828281518110611fe257611fe1612a2f565b5b6020026020010181815250508080611ff990612a8d565b915050611d71565b508383838397509750975097505050505090919293565b82805461202490612b04565b90600052602060002090601f016020900481019282612046576000855561208d565b82601f1061205f57805160ff191683800117855561208d565b8280016001018555821561208d579182015b8281111561208c578251825591602001919060010190612071565b5b50905061209a919061209e565b5090565b5b808211156120b757600081600090555060010161209f565b5090565b6000604051905090565b600080fd5b600080fd5b600073ffffffffffffffffffffffffffffffffffffffff82169050919050565b60006120fa826120cf565b9050919050565b61210a816120ef565b811461211557600080fd5b50565b60008135905061212781612101565b92915050565b600060208284031215612143576121426120c5565b5b600061215184828501612118565b91505092915050565b60008115159050919050565b61216f8161215a565b82525050565b600060208201905061218a6000830184612166565b92915050565b600080fd5b600080fd5b6000601f19601f8301169050919050565b7f4e487b7100000000000000000000000000000000000000000000000000000000600052604160045260246000fd5b6121e38261219a565b810181811067ffffffffffffffff82111715612202576122016121ab565b5b80604052505050565b60006122156120bb565b905061222182826121da565b919050565b600067ffffffffffffffff821115612241576122406121ab565b5b61224a8261219a565b9050602081019050919050565b82818337600083830152505050565b600061227961227484612226565b61220b565b90508281526020810184848401111561229557612294612195565b5b6122a0848285612257565b509392505050565b600082601f8301126122bd576122bc612190565b5b81356122cd848260208601612266565b91505092915050565b6000819050919050565b6122e9816122d6565b81146122f457600080fd5b50565b600081359050612306816122e0565b92915050565b600080600080600060a08688031215612328576123276120c5565b5b600061233688828901612118565b955050602086013567ffffffffffffffff811115612357576123566120ca565b5b612363888289016122a8565b945050604086013567ffffffffffffffff811115612384576123836120ca565b5b612390888289016122a8565b93505060606123a1888289016122f7565b92505060806123b2888289016122f7565b9150509295509295909350565b600080600080608085870312156123d9576123d86120c5565b5b600085013567ffffffffffffffff8111156123f7576123f66120ca565b5b612403878288016122a8565b945050602061241487828801612118565b935050604085013567ffffffffffffffff811115612435576124346120ca565b5b612441878288016122a8565b9250506060612452878288016122f7565b91505092959194509250565b600081519050919050565b600082825260208201905092915050565b6000819050602082019050919050565b600081519050919050565b600082825260208201905092915050565b60005b838110156124c45780820151818401526020810190506124a9565b838111156124d3576000848401525b50505050565b60006124e48261248a565b6124ee8185612495565b93506124fe8185602086016124a6565b6125078161219a565b840191505092915050565b600061251e83836124d9565b905092915050565b6000602082019050919050565b600061253e8261245e565b6125488185612469565b93508360208202850161255a8561247a565b8060005b8581101561259657848403895281516125778582612512565b945061258283612526565b925060208a0199505060018101905061255e565b50829750879550505050505092915050565b600081519050919050565b600082825260208201905092915050565b6000819050602082019050919050565b6125dd816120ef565b82525050565b60006125ef83836125d4565b60208301905092915050565b6000602082019050919050565b6000612613826125a8565b61261d81856125b3565b9350612628836125c4565b8060005b8381101561265957815161264088826125e3565b975061264b836125fb565b92505060018101905061262c565b5085935050505092915050565b600081519050919050565b600082825260208201905092915050565b6000819050602082019050919050565b61269b816122d6565b82525050565b60006126ad8383612692565b60208301905092915050565b6000602082019050919050565b60006126d182612666565b6126db8185612671565b93506126e683612682565b8060005b838110156127175781516126fe88826126a1565b9750612709836126b9565b9250506001810190506126ea565b5085935050505092915050565b6000608082019050818103600083015261273e8187612533565b905081810360208301526127528186612608565b905081810360408301526127668185612533565b9050818103606083015261277a81846126c6565b905095945050505050565b6000806040838503121561279c5761279b6120c5565b5b60006127aa85828601612118565b92505060206127bb858286016122f7565b9150509250929050565b6127ce816122d6565b82525050565b60006020820190506127e960008301846127c5565b92915050565b600060808201905081810360008301526128098187612608565b9050818103602083015261281d8186612533565b905081810360408301526128318185612533565b9050818103606083015261284581846126c6565b905095945050505050565b612859816120ef565b82525050565b600082825260208201905092915050565b600061287b8261248a565b612885818561285f565b93506128958185602086016124a6565b61289e8161219a565b840191505092915050565b600060a0820190506128be6000830188612850565b81810360208301526128d08187612870565b905081810360408301526128e48186612870565b90506128f360608301856127c5565b61290060808301846127c5565b9695505050505050565b600060808201905081810360008301526129248187612870565b90506129336020830186612850565b81810360408301526129458185612870565b905061295460608301846127c5565b95945050505050565b60008060408385031215612974576129736120c5565b5b600083013567ffffffffffffffff811115612992576129916120ca565b5b61299e858286016122a8565b92505060206129af858286016122f7565b9150509250929050565b600060a08201905081810360008301526129d38188612608565b905081810360208301526129e78187612533565b905081810360408301526129fb8186612533565b90508181036060830152612a0f81856126c6565b90508181036080830152612a2381846126c6565b90509695505050505050565b7f4e487b7100000000000000000000000000000000000000000000000000000000600052603260045260246000fd5b7f4e487b7100000000000000000000000000000000000000000000000000000000600052601160045260246000fd5b6000612a98826122d6565b91507fffffffffffffffffffffffffffffffffffffffffffffffffffffffffffffffff8203612aca57612ac9612a5e565b5b600182019050919050565b7f4e487b7100000000000000000000000000000000000000000000000000000000600052602260045260246000fd5b60006002820490506001821680612b1c57607f821691505b602082108103612b2f57612b2e612ad5565b5b50919050565b6000612b40826122d6565b9150612b4b836122d6565b9250827fffffffffffffffffffffffffffffffffffffffffffffffffffffffffffffffff03821115612b8057612b7f612a5e565b5b828201905092915050565b600081905092915050565b60008190508160005260206000209050919050565b60008154612bb881612b04565b612bc28186612b8b565b94506001821660008114612bdd5760018114612bee57612c21565b60ff19831686528186019350612c21565b612bf785612b96565b60005b83811015612c1957815481890152600182019150602081019050612bfa565b838801955050505b50505092915050565b6000612c368284612bab565b915081905092915050565b6000612c4c8261248a565b612c568185612b8b565b9350612c668185602086016124a6565b80840191505092915050565b6000612c7e8284612c41565b91508190509291505056fea2646970667358221220ae6b550eefeb43f0fb4ce05cbc7db1baa77dd633c7f0bf0614d4fe931e08ad8564736f6c634300080d0033",
  "immutableReferences": {},
  "source": "//SPDX-License-Identifier: MIT\r\npragma solidity ^0.8.10;\r\ncontract Seller{\r\n    address ADMIN;\r\n    uint pass=140;\r\n    constructor(){\r\n        ADMIN=msg.sender;\r\n    }\r\n\r\n    struct seller{\r\n        address uniqueAddress;\r\n        string Name;\r\n        string ID;\r\n        uint Bank_Account;\r\n        uint sel_wal;\r\n    }\r\n    struct Product{\r\n        string product_name;\r\n        address seller_address;\r\n        string product_ID;\r\n        uint product_price;\r\n    }\r\n    modifier onlyADMIN(){\r\n        require(msg.sender==ADMIN);\r\n        _;\r\n    }\r\n  mapping(address=>seller)public sell;\r\n  mapping(address=>Product)public prod;\r\n  seller[] _sell_arr;\r\nProduct[] no_of_products;\r\n\r\nfunction isverified()public view onlyADMIN returns(bool){\r\n    return true;\r\n}\r\nfunction setSeller(address _unq,string memory _name,string memory _id,uint account,uint am)public{\r\nrequire(isverified());\r\nrequire(!isSellerAvailable(_unq));\r\nsell[_unq]=seller(_unq,_name,_id,account,am);\r\n_sell_arr.push(seller(_unq,_name,_id,account,am));\r\n}\r\nfunction isSellerAvailable(address _seller_unq)public view returns (bool){\r\n    for(uint i=0;i<_sell_arr.length;i++){\r\n        if(_sell_arr[i].uniqueAddress==_seller_unq)\r\n        return true;\r\n    }\r\n    return false;\r\n}\r\nfunction setProduct(string memory _p_name,address _seller_unq,string memory product_id,uint _pro_price)public{\r\nrequire(isSellerAvailable(_seller_unq));\r\nprod[_seller_unq]=Product(_p_name,_seller_unq,product_id,_pro_price);\r\nno_of_products.push(Product(_p_name,_seller_unq,product_id,_pro_price));\r\n}\r\nfunction getSellers()public view returns (address[] memory,string[] memory,string[] memory,uint[] memory){\r\n    address[] memory newadd=new address[](_sell_arr.length);\r\n    string[] memory newName=new string[](_sell_arr.length);\r\n    string[] memory newId=new string[](_sell_arr.length);\r\n    uint[] memory newAcc=new uint[](_sell_arr.length);\r\n    for(uint i=0;i<_sell_arr.length;i++){\r\n        newadd[i]=_sell_arr[i].uniqueAddress;\r\n        newName[i]=_sell_arr[i].Name;\r\n        newId[i]=_sell_arr[i].ID;\r\n        newAcc[i]=_sell_arr[i].Bank_Account;\r\n    }\r\n    return(newadd,newName,newId,newAcc);\r\n}\r\nfunction getProductsthroughSeller(address unq)public view returns(string[] memory,address[] memory,string[] memory,uint[] memory){\r\n    string[] memory newstr=new string[](no_of_products.length);\r\n    address[] memory newadr=new address[](no_of_products.length);\r\n    string[] memory newid=new string[](no_of_products.length);\r\n    uint[] memory newprice=new uint[](no_of_products.length);\r\n    for(uint i=0;i<no_of_products.length;i++){\r\n        if(unq==no_of_products[i].seller_address){\r\n        newstr[i]=no_of_products[i].product_name;\r\n        newadr[i]=no_of_products[i].seller_address;\r\n        newid[i]=no_of_products[i].product_ID;\r\n        newprice[i]=no_of_products[i].product_price;\r\n            }\r\n    }\r\n            return(newstr,newadr,newid,newprice);\r\n}\r\nfunction getSellerthroughtProducts(string memory p_name,uint p_price)public view returns(address[] memory,string[] memory,string[] memory,uint[] memory,uint[] memory){\r\naddress[] memory newad=new address[](no_of_products.length);\r\nstring[] memory newna=new string[](no_of_products.length);\r\nstring[] memory nid=new string[](no_of_products.length);\r\nuint[] memory nacc=new uint[](no_of_products.length);\r\nuint[] memory price_p=new uint[](no_of_products.length);\r\nfor(uint i=0;i<no_of_products.length;i++){\r\n    if((p_price>=no_of_products[i].product_price) && \r\n    keccak256(abi.encodePacked(p_name))==keccak256(abi.encodePacked(no_of_products[i].product_name)) ){\r\n           newad[i]=no_of_products[i].seller_address;\r\n           newna[i]=sell[no_of_products[i].seller_address].Name;\r\n           nid[i]=sell[no_of_products[i].seller_address].ID;\r\n           nacc[i]=sell[no_of_products[i].seller_address].Bank_Account;\r\n        price_p[i]=no_of_products[i].product_price;\r\n    }\r\n}\r\nreturn (newad,newna,nid,nacc,price_p);\r\n}\r\n\r\nfunction getProducts()public view returns(string[] memory,address[] memory,string[] memory,uint[] memory){\r\n    string[] memory newstr=new string[](no_of_products.length);\r\n    address[] memory newadr=new address[](no_of_products.length);\r\n    string[] memory newid=new string[](no_of_products.length);\r\n    uint[] memory newprice=new uint[](no_of_products.length);\r\n    for(uint i=0;i<no_of_products.length;i++){\r\n        newstr[i]=no_of_products[i].product_name;\r\n        newadr[i]=no_of_products[i].seller_address;\r\n        newid[i]=no_of_products[i].product_ID;\r\n        newprice[i]=no_of_products[i].product_price;\r\n            }\r\n            return(newstr,newadr,newid,newprice);\r\n}\r\nfunction login(address ad,uint password)public view returns(uint){\r\nif(ad==ADMIN){\r\n    if(password==pass){\r\n        return 1;\r\n    }\r\n}\r\nelse{\r\n    for(uint i=0;i<_sell_arr.length;i++){\r\n        if(_sell_arr[i].uniqueAddress==ad){\r\n           if( _sell_arr[i].Bank_Account==password){\r\n               return 2;\r\n           }\r\n        }\r\n    }\r\n}\r\nreturn 3;\r\n}\r\nfunction delivered(address se,uint cred)public {\r\n    require(isSellerAvailable(se));\r\n    sell[se].sel_wal+=cred;\r\n}\r\nfunction viewBal(address s)public view returns(uint){\r\nrequire(isSellerAvailable(s));\r\nreturn sell[s].sel_wal;\r\n}\r\n}\r\n",
  "sourcePath": "C:\\Users\\khage\\Block-Chain-Ecommerce-Market-Place\\Ecommerce\\contracts\\Seller.sol",
  "compiler": {
    "name": "solc",
    "version": "0.8.13+commit.abaa5c0e.Emscripten.clang"
  },
  "schemaVersion": "3.4.7",
  "updatedAt": "2022-05-20T06:16:02.059Z",
  "networkType": "ethereum",
  "devdoc": {
    "kind": "dev",
    "methods": {},
    "version": 1
  },
  "userdoc": {
    "kind": "user",
    "methods": {},
    "version": 1
  }
}